{
  "contractName": "Bond",
  "abi": [
    {
      "constant": true,
      "inputs": [],
      "name": "bond",
      "outputs": [
        {
          "name": "lender",
          "type": "uint256"
        },
        {
          "name": "borrower",
          "type": "uint256"
        },
        {
          "name": "borrowerAddress",
          "type": "address"
        },
        {
          "name": "principal",
          "type": "uint256"
        },
        {
          "name": "bidTimeFrame",
          "type": "uint256"
        },
        {
          "name": "amountRepaid",
          "type": "uint256"
        },
        {
          "name": "complete",
          "type": "bool"
        },
        {
          "name": "defaulted",
          "type": "bool"
        },
        {
          "name": "creationDate",
          "type": "uint256"
        },
        {
          "name": "duration",
          "type": "uint256"
        },
        {
          "name": "interestRate",
          "type": "uint256"
        },
        {
          "name": "granted",
          "type": "bool"
        }
      ],
      "payable": false,
      "stateMutability": "view",
      "type": "function"
    },
    {
      "inputs": [
        {
          "name": "_lender",
          "type": "uint256"
        },
        {
          "name": "_principal",
          "type": "uint256"
        },
        {
          "name": "_bidTimeFrame",
          "type": "uint256"
        },
        {
          "name": "_amountRepaid",
          "type": "uint256"
        },
        {
          "name": "_complete",
          "type": "bool"
        },
        {
          "name": "_defaulted",
          "type": "bool"
        },
        {
          "name": "_duration",
          "type": "uint256"
        },
        {
          "name": "_interestRate",
          "type": "uint256"
        },
        {
          "name": "_loanRegistry",
          "type": "address"
        }
      ],
      "payable": false,
      "stateMutability": "nonpayable",
      "type": "constructor"
    },
    {
      "constant": true,
      "inputs": [],
      "name": "getLender",
      "outputs": [
        {
          "name": "",
          "type": "uint256"
        }
      ],
      "payable": false,
      "stateMutability": "view",
      "type": "function"
    },
    {
      "constant": true,
      "inputs": [],
      "name": "getBorrower",
      "outputs": [
        {
          "name": "",
          "type": "uint256"
        }
      ],
      "payable": false,
      "stateMutability": "view",
      "type": "function"
    },
    {
      "constant": true,
      "inputs": [],
      "name": "getBorrowerAddress",
      "outputs": [
        {
          "name": "",
          "type": "address"
        }
      ],
      "payable": false,
      "stateMutability": "view",
      "type": "function"
    },
    {
      "constant": true,
      "inputs": [],
      "name": "getPrincipal",
      "outputs": [
        {
          "name": "",
          "type": "uint256"
        }
      ],
      "payable": false,
      "stateMutability": "view",
      "type": "function"
    },
    {
      "constant": true,
      "inputs": [],
      "name": "bidTimeFrame",
      "outputs": [
        {
          "name": "",
          "type": "uint256"
        }
      ],
      "payable": false,
      "stateMutability": "view",
      "type": "function"
    },
    {
      "constant": true,
      "inputs": [],
      "name": "getAmountRepaid",
      "outputs": [
        {
          "name": "",
          "type": "uint256"
        }
      ],
      "payable": false,
      "stateMutability": "view",
      "type": "function"
    },
    {
      "constant": true,
      "inputs": [],
      "name": "getComplete",
      "outputs": [
        {
          "name": "",
          "type": "bool"
        }
      ],
      "payable": false,
      "stateMutability": "view",
      "type": "function"
    },
    {
      "constant": true,
      "inputs": [],
      "name": "getDefaulted",
      "outputs": [
        {
          "name": "",
          "type": "bool"
        }
      ],
      "payable": false,
      "stateMutability": "view",
      "type": "function"
    },
    {
      "constant": true,
      "inputs": [],
      "name": "getCreationDate",
      "outputs": [
        {
          "name": "",
          "type": "uint256"
        }
      ],
      "payable": false,
      "stateMutability": "view",
      "type": "function"
    },
    {
      "constant": true,
      "inputs": [],
      "name": "getDuration",
      "outputs": [
        {
          "name": "",
          "type": "uint256"
        }
      ],
      "payable": false,
      "stateMutability": "view",
      "type": "function"
    },
    {
      "constant": true,
      "inputs": [],
      "name": "getInterestRate",
      "outputs": [
        {
          "name": "",
          "type": "uint256"
        }
      ],
      "payable": false,
      "stateMutability": "view",
      "type": "function"
    },
    {
      "constant": true,
      "inputs": [],
      "name": "getTotalToPay",
      "outputs": [
        {
          "name": "",
          "type": "uint256"
        }
      ],
      "payable": false,
      "stateMutability": "view",
      "type": "function"
    },
    {
      "constant": true,
      "inputs": [],
      "name": "isBiddingTime",
      "outputs": [
        {
          "name": "",
          "type": "bool"
        }
      ],
      "payable": false,
      "stateMutability": "view",
      "type": "function"
    },
    {
      "constant": false,
      "inputs": [
        {
          "name": "_interestRate",
          "type": "uint256"
        },
        {
          "name": "_bloomId",
          "type": "uint256"
        }
      ],
      "name": "addBid",
      "outputs": [
        {
          "name": "",
          "type": "bool"
        }
      ],
      "payable": false,
      "stateMutability": "nonpayable",
      "type": "function"
    },
    {
      "constant": false,
      "inputs": [],
      "name": "giveLoan",
      "outputs": [],
      "payable": true,
      "stateMutability": "payable",
      "type": "function"
    },
    {
      "constant": false,
      "inputs": [],
      "name": "payCouponRate",
      "outputs": [],
      "payable": true,
      "stateMutability": "payable",
      "type": "function"
    },
    {
      "constant": false,
      "inputs": [],
      "name": "setDefaulted",
      "outputs": [],
      "payable": false,
      "stateMutability": "nonpayable",
      "type": "function"
    }
  ],
  "bytecode": "0x608060405234801561001057600080fd5b5060405161012080610d3683398101806040528101908080519060200190929190805190602001909291908051906020019092919080519060200190929190805190602001909291908051906020019092919080519060200190929190805190602001909291908051906020019092919050505061008c610305565b6000610180604051908101604052808c815260200160008152602001600073ffffffffffffffffffffffffffffffffffffffff1681526020018b81526020018a8152602001898152602001881515815260200187151581526020014281526020018681526020018581526020016000151581525091508160008082015181600001556020820151816001015560408201518160020160006101000a81548173ffffffffffffffffffffffffffffffffffffffff021916908373ffffffffffffffffffffffffffffffffffffffff160217905550606082015181600301556080820151816004015560a0820151816005015560c08201518160060160006101000a81548160ff02191690831515021790555060e08201518160060160016101000a81548160ff02191690831515021790555061010082015181600701556101208201518160080155610140820151816009015561016082015181600a0160006101000a81548160ff021916908315150217905550905050829050600115158173ffffffffffffffffffffffffffffffffffffffff16636e190ea38d306040518363ffffffff167c0100000000000000000000000000000000000000000000000000000000028152600401808381526020018273ffffffffffffffffffffffffffffffffffffffff1673ffffffffffffffffffffffffffffffffffffffff16815260200192505050602060405180830381600087803b1580156102ac57600080fd5b505af11580156102c0573d6000803e3d6000fd5b505050506040513d60208110156102d657600080fd5b810190808051906020019092919050505015151415156102f557600080fd5b5050505050505050505050610383565b610180604051908101604052806000815260200160008152602001600073ffffffffffffffffffffffffffffffffffffffff1681526020016000815260200160008152602001600081526020016000151581526020016000151581526020016000815260200160008152602001600081526020016000151581525090565b6109a4806103926000396000f3006080604052600436106100fc576000357c0100000000000000000000000000000000000000000000000000000000900463ffffffff1680631cb0c3e7146101015780632078d9cc1461012c57806321b23f04146101575780634318d280146101a65780634d025eb7146101bd5780635257b566146101ec57806364c9ec6f1461021757806368ba6bd1146102c757806380d78e3e146102f657806388e93e56146103215780639861f3e51461034c578063a69bdf1614610377578063ad2e8c9b146103a2578063b90c1dbb146103cd578063c291ea44146103f8578063d545b3741461044f578063d726e15014610459578063ff14e5d314610488575b600080fd5b34801561010d57600080fd5b50610116610492565b6040518082815260200191505060405180910390f35b34801561013857600080fd5b5061014161049e565b6040518082815260200191505060405180910390f35b34801561016357600080fd5b5061018c60048036038101908080359060200190929190803590602001909291905050506104aa565b604051808215151515815260200191505060405180910390f35b3480156101b257600080fd5b506101bb61055f565b005b3480156101c957600080fd5b506101d261063a565b604051808215151515815260200191505060405180910390f35b3480156101f857600080fd5b50610201610653565b6040518082815260200191505060405180910390f35b34801561022357600080fd5b5061022c61065f565b604051808d81526020018c81526020018b73ffffffffffffffffffffffffffffffffffffffff1673ffffffffffffffffffffffffffffffffffffffff1681526020018a81526020018981526020018881526020018715151515815260200186151515158152602001858152602001848152602001838152602001821515151581526020019c5050505050505050505050505060405180910390f35b3480156102d357600080fd5b506102dc6106f4565b604051808215151515815260200191505060405180910390f35b34801561030257600080fd5b5061030b61070d565b6040518082815260200191505060405180910390f35b34801561032d57600080fd5b50610336610760565b6040518082815260200191505060405180910390f35b34801561035857600080fd5b5061036161076c565b6040518082815260200191505060405180910390f35b34801561038357600080fd5b5061038c610778565b6040518082815260200191505060405180910390f35b3480156103ae57600080fd5b506103b7610784565b6040518082815260200191505060405180910390f35b3480156103d957600080fd5b506103e2610790565b6040518082815260200191505060405180910390f35b34801561040457600080fd5b5061040d61079c565b604051808273ffffffffffffffffffffffffffffffffffffffff1673ffffffffffffffffffffffffffffffffffffffff16815260200191505060405180910390f35b6104576107c8565b005b34801561046557600080fd5b5061046e61085d565b604051808215151515815260200191505060405180910390f35b610490610884565b005b60008060010154905090565b60008060040154905090565b60008060090154831015156104be57600080fd5b42600060040154600060070154011015156104d857600080fd5b60001515600060060160009054906101000a900460ff1615151415156104fd57600080fd5b8160006001018190555033600060020160006101000a81548173ffffffffffffffffffffffffffffffffffffffff021916908373ffffffffffffffffffffffffffffffffffffffff160217905550826000600901819055506001905092915050565b6000801515600060060160009054906101000a900460ff1615151415151561058657600080fd5b6000151561059261085d565b15151415156105a057600080fd5b622014806000600401546000600701544303018115156105bc57fe5b04905060006008015481101580156105ea575060001515600060060160009054906101000a900460ff161515145b806106135750600060030154606460006009015402820281151561060a57fe5b04600060050154105b15610637576001600060060160016101000a81548160ff0219169083151502179055505b50565b60008060060160019054906101000a900460ff16905090565b60008060090154905090565b60008060000154908060010154908060020160009054906101000a900473ffffffffffffffffffffffffffffffffffffffff16908060030154908060040154908060050154908060060160009054906101000a900460ff16908060060160019054906101000a900460ff169080600701549080600801549080600901549080600a0160009054906101000a900460ff1690508c565b60008060060160009054906101000a900460ff16905090565b6000600115156000600a0160009054906101000a900460ff16151514151561073457600080fd5b60006008015460006003015460646000600901540281151561075257fe5b040260006003015401905090565b60008060050154905090565b60008060000154905090565b60008060030154905090565b60008060080154905090565b60008060070154905090565b60008060020160009054906101000a900473ffffffffffffffffffffffffffffffffffffffff16905090565b42600060040154600060070154011115156107e257600080fd5b60001515600060060160009054906101000a900460ff16151514151561080757600080fd5b6000600301543410158061083757506000600301543073ffffffffffffffffffffffffffffffffffffffff163110155b1561085b5760016000600a0160006101000a81548160ff0219169083151502179055505b565b60004260006004015460006007015401101561087c5760019050610881565b600090505b90565b60011515600060060160009054906101000a900460ff1615151415156108a957600080fd5b42600060040154600060070154011115156108c357600080fd5b346000600501600082825401925050819055506000600501546108e461070d565b11151561090a576001600060060160006101000a81548160ff0219169083151502179055505b600060020160009054906101000a900473ffffffffffffffffffffffffffffffffffffffff1673ffffffffffffffffffffffffffffffffffffffff166108fc349081150290604051600060405180830381858888f19350505050158015610975573d6000803e3d6000fd5b505600a165627a7a723058205afce8b594dbb198e4f66d2aaa47ad57f8326ab7ffe0d654613510680ca74b6c0029",
  "source": "pragma solidity ^0.4.24;\n\n/**\n * Author: Carlos Gonzalez -- Github: carlosgj94\n */\n/** @title Bond . */\n\nimport \"./LoanRegistry.sol\";\n\n\ncontract Bond {\n    struct BondStruct {\n        uint lender;\n        uint borrower;\n        address borrowerAddress;\n        uint principal;\n        uint bidTimeFrame;\n        uint amountRepaid;\n        bool complete;\n        bool defaulted;\n        uint creationDate;\n        uint duration; // The amount of years\n        uint interestRate;\n        bool granted;\n    }\n\n    BondStruct public bond;\n  \n    constructor (\n        uint _lender,\n        uint _principal,\n        uint _bidTimeFrame,\n        uint _amountRepaid,\n        bool _complete,\n        bool _defaulted,\n        uint _duration,\n        uint _interestRate,\n        address _loanRegistry\n    ) public {\n        BondStruct memory _bond = BondStruct({\n            lender: _lender,\n            borrower: 0,\n            borrowerAddress: address(0),\n            principal: _principal,\n            bidTimeFrame: _bidTimeFrame,\n            amountRepaid: _amountRepaid,\n            complete: _complete,\n            defaulted: _defaulted,\n            creationDate: now,\n            duration: _duration,\n            interestRate: _interestRate,\n            granted: false\n        });\n        bond = _bond;\n\n        LoanRegistry _loanRegistryContract = LoanRegistry(_loanRegistry);\n\n        require(_loanRegistryContract.addLoan(_lender, address(this)) == true);\n    }\n\n    function getLender() public view returns(uint) {\n        return bond.lender;\n    }\n\n    function getBorrower() public view returns(uint) {\n        return bond.borrower;\n    }\n\n    function getBorrowerAddress() public view returns(address) {\n        return bond.borrowerAddress;\n    }\n\n    function getPrincipal() public view returns(uint) {\n        return bond.principal;\n    }\n\n    function bidTimeFrame() public view returns(uint) {\n        return bond.bidTimeFrame;\n    }\n\n    function getAmountRepaid() public view returns(uint) {\n        return bond.amountRepaid;\n    }\n\n    function getComplete() public view returns(bool) {\n        return bond.complete;\n    }\n\n    function getDefaulted() public view returns(bool) {\n        return bond.defaulted;\n    }\n\n    function getCreationDate() public view returns(uint) {\n        return bond.creationDate;\n    }\n\n    function getDuration() public view returns(uint) {\n        return bond.duration;\n    }\n\n    function getInterestRate() public view returns(uint) {\n        return bond.interestRate;\n    }\n\n    function getTotalToPay() public view returns(uint) {\n        require(bond.granted == true);\n\n        return bond.principal + (((bond.interestRate*100) / bond.principal) * bond.duration);\n    }\n\n    function isBiddingTime() public view returns(bool) {\n        if (bond.creationDate + bond.bidTimeFrame < now)\n            return true;\n        else\n            return false;\n    }\n\n    function addBid(uint _interestRate, uint _bloomId) public returns(bool) {\n        require(_interestRate < bond.interestRate);\n        require(bond.creationDate + bond.bidTimeFrame < now);\n        require(bond.complete == false);\n        \n        bond.borrower = _bloomId;\n        bond.borrowerAddress = msg.sender;\n        bond.interestRate = _interestRate;\n        return true;\n    }\n\n    function giveLoan() public payable {\n        require(bond.creationDate + bond.bidTimeFrame > now);\n        require(bond.complete == false);\n        // require(bond.creationDate + bond.bidTimeFrame > now);\n\n        if (msg.value >= bond.principal || address(this).balance >= bond.principal) {\n            bond.granted = true;\n        }\n    }\n\n    function payCouponRate() public payable {\n        require(bond.complete == true);\n        require(bond.creationDate + bond.bidTimeFrame > now);\n        \n        bond.amountRepaid += msg.value;\n        if (getTotalToPay() <= bond.amountRepaid) {\n            bond.complete = true;\n        }\n        bond.borrowerAddress.transfer(msg.value);\n    }\n\n    function setDefaulted() public {\n        require(bond.complete != false);\n        require(isBiddingTime() == false);\n\n        uint _yearsPassed = (block.number - bond.creationDate + bond.bidTimeFrame)/2102400;\n        if (\n            (_yearsPassed >= bond.duration && bond.complete == false) ||\n            (bond.amountRepaid < _yearsPassed * (bond.interestRate * 100) / bond.principal)\n        ) {\n            bond.defaulted = true;\n            // These scammers...\n        }\n\n    }\n}\n",
  "sourcePath": "/Users/carlosgonzalezjuarez/Documents/Development/Vue/BloomLending/contracts/Bond.sol",
  "compiler": {
    "name": "solc",
    "version": "0.4.25+commit.59dbf8f1.Emscripten.clang"
  },
  "schemaVersion": "3.0.0-beta.1",
  "updatedAt": "2018-10-27T20:55:59.241Z"
}