{
  "contractName": "Bond",
  "abi": [
    {
      "constant": true,
      "inputs": [],
      "name": "bond",
      "outputs": [
        {
          "name": "lender",
          "type": "uint256"
        },
        {
          "name": "borrower",
          "type": "uint256"
        },
        {
          "name": "borrowerAddress",
          "type": "address"
        },
        {
          "name": "principal",
          "type": "uint256"
        },
        {
          "name": "bidTimeFrame",
          "type": "uint256"
        },
        {
          "name": "amountRepaid",
          "type": "uint256"
        },
        {
          "name": "complete",
          "type": "bool"
        },
        {
          "name": "defaulted",
          "type": "bool"
        },
        {
          "name": "creationDate",
          "type": "uint256"
        },
        {
          "name": "duration",
          "type": "uint256"
        },
        {
          "name": "interestRate",
          "type": "uint256"
        },
        {
          "name": "granted",
          "type": "bool"
        }
      ],
      "payable": false,
      "stateMutability": "view",
      "type": "function"
    },
    {
      "inputs": [
        {
          "name": "_lender",
          "type": "uint256"
        },
        {
          "name": "_principal",
          "type": "uint256"
        },
        {
          "name": "_bidTimeFrame",
          "type": "uint256"
        },
        {
          "name": "_amountRepaid",
          "type": "uint256"
        },
        {
          "name": "_complete",
          "type": "bool"
        },
        {
          "name": "_defaulted",
          "type": "bool"
        },
        {
          "name": "_duration",
          "type": "uint256"
        },
        {
          "name": "_interestRate",
          "type": "uint256"
        },
        {
          "name": "_loanRegistry",
          "type": "address"
        }
      ],
      "payable": false,
      "stateMutability": "nonpayable",
      "type": "constructor"
    },
    {
      "constant": true,
      "inputs": [],
      "name": "getLender",
      "outputs": [
        {
          "name": "",
          "type": "uint256"
        }
      ],
      "payable": false,
      "stateMutability": "view",
      "type": "function"
    },
    {
      "constant": true,
      "inputs": [],
      "name": "getBorrower",
      "outputs": [
        {
          "name": "",
          "type": "uint256"
        }
      ],
      "payable": false,
      "stateMutability": "view",
      "type": "function"
    },
    {
      "constant": true,
      "inputs": [],
      "name": "getBorrowerAddress",
      "outputs": [
        {
          "name": "",
          "type": "address"
        }
      ],
      "payable": false,
      "stateMutability": "view",
      "type": "function"
    },
    {
      "constant": true,
      "inputs": [],
      "name": "getPrincipal",
      "outputs": [
        {
          "name": "",
          "type": "uint256"
        }
      ],
      "payable": false,
      "stateMutability": "view",
      "type": "function"
    },
    {
      "constant": true,
      "inputs": [],
      "name": "bidTimeFrame",
      "outputs": [
        {
          "name": "",
          "type": "uint256"
        }
      ],
      "payable": false,
      "stateMutability": "view",
      "type": "function"
    },
    {
      "constant": true,
      "inputs": [],
      "name": "getAmountRepaid",
      "outputs": [
        {
          "name": "",
          "type": "uint256"
        }
      ],
      "payable": false,
      "stateMutability": "view",
      "type": "function"
    },
    {
      "constant": true,
      "inputs": [],
      "name": "getComplete",
      "outputs": [
        {
          "name": "",
          "type": "bool"
        }
      ],
      "payable": false,
      "stateMutability": "view",
      "type": "function"
    },
    {
      "constant": true,
      "inputs": [],
      "name": "getDefaulted",
      "outputs": [
        {
          "name": "",
          "type": "bool"
        }
      ],
      "payable": false,
      "stateMutability": "view",
      "type": "function"
    },
    {
      "constant": true,
      "inputs": [],
      "name": "getCreationDate",
      "outputs": [
        {
          "name": "",
          "type": "uint256"
        }
      ],
      "payable": false,
      "stateMutability": "view",
      "type": "function"
    },
    {
      "constant": true,
      "inputs": [],
      "name": "getDuration",
      "outputs": [
        {
          "name": "",
          "type": "uint256"
        }
      ],
      "payable": false,
      "stateMutability": "view",
      "type": "function"
    },
    {
      "constant": true,
      "inputs": [],
      "name": "getInterestRate",
      "outputs": [
        {
          "name": "",
          "type": "uint256"
        }
      ],
      "payable": false,
      "stateMutability": "view",
      "type": "function"
    },
    {
      "constant": true,
      "inputs": [],
      "name": "getTotalToPay",
      "outputs": [
        {
          "name": "",
          "type": "uint256"
        }
      ],
      "payable": false,
      "stateMutability": "view",
      "type": "function"
    },
    {
      "constant": false,
      "inputs": [
        {
          "name": "_interestRate",
          "type": "uint256"
        },
        {
          "name": "_bloomId",
          "type": "uint256"
        }
      ],
      "name": "addBid",
      "outputs": [
        {
          "name": "",
          "type": "bool"
        }
      ],
      "payable": false,
      "stateMutability": "nonpayable",
      "type": "function"
    },
    {
      "constant": false,
      "inputs": [],
      "name": "giveLoan",
      "outputs": [],
      "payable": true,
      "stateMutability": "payable",
      "type": "function"
    },
    {
      "constant": false,
      "inputs": [],
      "name": "payCouponRate",
      "outputs": [],
      "payable": true,
      "stateMutability": "payable",
      "type": "function"
    }
  ],
  "bytecode": "0x608060405234801561001057600080fd5b5060405161012080610bd183398101806040528101908080519060200190929190805190602001909291908051906020019092919080519060200190929190805190602001909291908051906020019092919080519060200190929190805190602001909291908051906020019092919050505061008c610305565b6000610180604051908101604052808c815260200160008152602001600073ffffffffffffffffffffffffffffffffffffffff1681526020018b81526020018a8152602001898152602001881515815260200187151581526020014281526020018681526020018581526020016000151581525091508160008082015181600001556020820151816001015560408201518160020160006101000a81548173ffffffffffffffffffffffffffffffffffffffff021916908373ffffffffffffffffffffffffffffffffffffffff160217905550606082015181600301556080820151816004015560a0820151816005015560c08201518160060160006101000a81548160ff02191690831515021790555060e08201518160060160016101000a81548160ff02191690831515021790555061010082015181600701556101208201518160080155610140820151816009015561016082015181600a0160006101000a81548160ff021916908315150217905550905050829050600115158173ffffffffffffffffffffffffffffffffffffffff16636e190ea38d306040518363ffffffff167c0100000000000000000000000000000000000000000000000000000000028152600401808381526020018273ffffffffffffffffffffffffffffffffffffffff1673ffffffffffffffffffffffffffffffffffffffff16815260200192505050602060405180830381600087803b1580156102ac57600080fd5b505af11580156102c0573d6000803e3d6000fd5b505050506040513d60208110156102d657600080fd5b810190808051906020019092919050505015151415156102f557600080fd5b5050505050505050505050610383565b610180604051908101604052806000815260200160008152602001600073ffffffffffffffffffffffffffffffffffffffff1681526020016000815260200160008152602001600081526020016000151581526020016000151581526020016000815260200160008152602001600081526020016000151581525090565b61083f806103926000396000f3006080604052600436106100e6576000357c0100000000000000000000000000000000000000000000000000000000900463ffffffff1680631cb0c3e7146100eb5780632078d9cc1461011657806321b23f04146101415780634d025eb7146101905780635257b566146101bf57806364c9ec6f146101ea57806368ba6bd11461029a57806380d78e3e146102c957806388e93e56146102f45780639861f3e51461031f578063a69bdf161461034a578063ad2e8c9b14610375578063b90c1dbb146103a0578063c291ea44146103cb578063d545b37414610422578063ff14e5d31461042c575b600080fd5b3480156100f757600080fd5b50610100610436565b6040518082815260200191505060405180910390f35b34801561012257600080fd5b5061012b610442565b6040518082815260200191505060405180910390f35b34801561014d57600080fd5b50610176600480360381019080803590602001909291908035906020019092919050505061044e565b604051808215151515815260200191505060405180910390f35b34801561019c57600080fd5b506101a5610503565b604051808215151515815260200191505060405180910390f35b3480156101cb57600080fd5b506101d461051c565b6040518082815260200191505060405180910390f35b3480156101f657600080fd5b506101ff610528565b604051808d81526020018c81526020018b73ffffffffffffffffffffffffffffffffffffffff1673ffffffffffffffffffffffffffffffffffffffff1681526020018a81526020018981526020018881526020018715151515815260200186151515158152602001858152602001848152602001838152602001821515151581526020019c5050505050505050505050505060405180910390f35b3480156102a657600080fd5b506102af6105bd565b604051808215151515815260200191505060405180910390f35b3480156102d557600080fd5b506102de6105d6565b6040518082815260200191505060405180910390f35b34801561030057600080fd5b50610309610622565b6040518082815260200191505060405180910390f35b34801561032b57600080fd5b5061033461062e565b6040518082815260200191505060405180910390f35b34801561035657600080fd5b5061035f61063a565b6040518082815260200191505060405180910390f35b34801561038157600080fd5b5061038a610646565b6040518082815260200191505060405180910390f35b3480156103ac57600080fd5b506103b5610652565b6040518082815260200191505060405180910390f35b3480156103d757600080fd5b506103e061065e565b604051808273ffffffffffffffffffffffffffffffffffffffff1673ffffffffffffffffffffffffffffffffffffffff16815260200191505060405180910390f35b61042a61068a565b005b61043461071f565b005b60008060010154905090565b60008060040154905090565b600080600901548310151561046257600080fd5b426000600401546000600701540110151561047c57600080fd5b60001515600060060160009054906101000a900460ff1615151415156104a157600080fd5b8160006001018190555033600060020160006101000a81548173ffffffffffffffffffffffffffffffffffffffff021916908373ffffffffffffffffffffffffffffffffffffffff160217905550826000600901819055506001905092915050565b60008060060160019054906101000a900460ff16905090565b60008060090154905090565b60008060000154908060010154908060020160009054906101000a900473ffffffffffffffffffffffffffffffffffffffff16908060030154908060040154908060050154908060060160009054906101000a900460ff16908060060160019054906101000a900460ff169080600701549080600801549080600901549080600a0160009054906101000a900460ff1690508c565b60008060060160009054906101000a900460ff16905090565b6000600115156000600a0160009054906101000a900460ff1615151415156105fd57600080fd5b60006003015460646000600901540281151561061557fe5b0460006003015401905090565b60008060050154905090565b60008060000154905090565b60008060030154905090565b60008060080154905090565b60008060070154905090565b60008060020160009054906101000a900473ffffffffffffffffffffffffffffffffffffffff16905090565b42600060040154600060070154011115156106a457600080fd5b60001515600060060160009054906101000a900460ff1615151415156106c957600080fd5b600060030154341015806106f957506000600301543073ffffffffffffffffffffffffffffffffffffffff163110155b1561071d5760016000600a0160006101000a81548160ff0219169083151502179055505b565b60011515600060060160009054906101000a900460ff16151514151561074457600080fd5b426000600401546000600701540111151561075e57600080fd5b3460006005016000828254019250508190555060006005015461077f6105d6565b1115156107a5576001600060060160006101000a81548160ff0219169083151502179055505b600060020160009054906101000a900473ffffffffffffffffffffffffffffffffffffffff1673ffffffffffffffffffffffffffffffffffffffff166108fc349081150290604051600060405180830381858888f19350505050158015610810573d6000803e3d6000fd5b505600a165627a7a7230582045c382a01233e4cb15d84e4ab68f0b1269ccfd6ce3e7537f2001295ed73747660029",
  "source": "pragma solidity ^0.4.24;\n\n/**\n * Author: Carlos Gonzalez -- Github: carlosgj94\n */\n/** @title Bond . */\n\nimport \"./LoanRegistry.sol\";\n\n\ncontract Bond {\n    struct BondStruct {\n        uint lender;\n        uint borrower;\n        address borrowerAddress;\n        uint principal;\n        uint bidTimeFrame;\n        uint amountRepaid;\n        bool complete;\n        bool defaulted;\n        uint creationDate;\n        uint duration; // The amount of years\n        uint interestRate;\n        bool granted;\n    }\n\n    BondStruct public bond;\n  \n    constructor (\n        uint _lender,\n        uint _principal,\n        uint _bidTimeFrame,\n        uint _amountRepaid,\n        bool _complete,\n        bool _defaulted,\n        uint _duration,\n        uint _interestRate,\n        address _loanRegistry\n    ) public {\n        BondStruct memory _bond = BondStruct({\n            lender: _lender,\n            borrower: 0,\n            borrowerAddress: address(0),\n            principal: _principal,\n            bidTimeFrame: _bidTimeFrame,\n            amountRepaid: _amountRepaid,\n            complete: _complete,\n            defaulted: _defaulted,\n            creationDate: now,\n            duration: _duration,\n            interestRate: _interestRate,\n            granted: false\n        });\n        bond = _bond;\n\n        LoanRegistry _loanRegistryContract = LoanRegistry(_loanRegistry);\n\n        require(_loanRegistryContract.addLoan(_lender, address(this)) == true);\n    }\n\n    function getLender() public view returns(uint) {\n        return bond.lender;\n    }\n\n    function getBorrower() public view returns(uint) {\n        return bond.borrower;\n    }\n\n    function getBorrowerAddress() public view returns(address) {\n        return bond.borrowerAddress;\n    }\n\n    function getPrincipal() public view returns(uint) {\n        return bond.principal;\n    }\n\n    function bidTimeFrame() public view returns(uint) {\n        return bond.bidTimeFrame;\n    }\n\n    function getAmountRepaid() public view returns(uint) {\n        return bond.amountRepaid;\n    }\n\n    function getComplete() public view returns(bool) {\n        return bond.complete;\n    }\n\n    function getDefaulted() public view returns(bool) {\n        return bond.defaulted;\n    }\n\n    function getCreationDate() public view returns(uint) {\n        return bond.creationDate;\n    }\n\n    function getDuration() public view returns(uint) {\n        return bond.duration;\n    }\n\n    function getInterestRate() public view returns(uint) {\n        return bond.interestRate;\n    }\n\n    function getTotalToPay() public view returns(uint) {\n        require(bond.granted == true);\n\n        return bond.principal + ((bond.interestRate*100) / bond.principal);\n    }\n\n    function addBid(uint _interestRate, uint _bloomId) public returns(bool) {\n        require(_interestRate < bond.interestRate);\n        require(bond.creationDate + bond.bidTimeFrame < now);\n        require(bond.complete == false);\n        \n        bond.borrower = _bloomId;\n        bond.borrowerAddress = msg.sender;\n        bond.interestRate = _interestRate;\n        return true;\n    }\n\n    function giveLoan() public payable {\n        require(bond.creationDate + bond.bidTimeFrame > now);\n        require(bond.complete == false);\n\n        if (msg.value >= bond.principal || address(this).balance >= bond.principal) {\n            bond.granted = true;\n        }\n    }\n\n    function payCouponRate() public payable {\n        require(bond.complete == true);\n        require(bond.creationDate + bond.bidTimeFrame > now);\n        \n        bond.amountRepaid += msg.value;\n        if (getTotalToPay() <= bond.amountRepaid) {\n            bond.complete = true;\n        }\n        bond.borrowerAddress.transfer(msg.value);\n    }\n}\n",
  "sourcePath": "/Users/carlosgonzalezjuarez/Documents/Development/Vue/BloomLending/contracts/Bond.sol",
  "compiler": {
    "name": "solc",
    "version": "0.4.25+commit.59dbf8f1.Emscripten.clang"
  },
  "schemaVersion": "3.0.0-beta.1",
  "updatedAt": "2018-10-27T19:04:34.803Z"
}