{
  "contractName": "LoanRegistry",
  "abi": [
    {
      "constant": true,
      "inputs": [
        {
          "name": "",
          "type": "uint256"
        },
        {
          "name": "",
          "type": "uint256"
        }
      ],
      "name": "loansByBloomId",
      "outputs": [
        {
          "name": "",
          "type": "address"
        }
      ],
      "payable": false,
      "stateMutability": "view",
      "type": "function"
    },
    {
      "constant": true,
      "inputs": [
        {
          "name": "",
          "type": "uint256"
        }
      ],
      "name": "loans",
      "outputs": [
        {
          "name": "",
          "type": "address"
        }
      ],
      "payable": false,
      "stateMutability": "view",
      "type": "function"
    },
    {
      "anonymous": false,
      "inputs": [
        {
          "indexed": false,
          "name": "bloomId",
          "type": "uint256"
        },
        {
          "indexed": false,
          "name": "loan",
          "type": "address"
        }
      ],
      "name": "LoanCreated",
      "type": "event"
    },
    {
      "constant": false,
      "inputs": [
        {
          "name": "_bloomId",
          "type": "uint256"
        },
        {
          "name": "_loanAddress",
          "type": "address"
        }
      ],
      "name": "addLoan",
      "outputs": [
        {
          "name": "",
          "type": "bool"
        }
      ],
      "payable": false,
      "stateMutability": "nonpayable",
      "type": "function"
    }
  ],
  "bytecode": "0x608060405234801561001057600080fd5b506103ab806100206000396000f300608060405260043610610057576000357c0100000000000000000000000000000000000000000000000000000000900463ffffffff1680636e190ea31461005c5780637f53ee29146100c1578063e1ec3c6814610138575b600080fd5b34801561006857600080fd5b506100a760048036038101908080359060200190929190803573ffffffffffffffffffffffffffffffffffffffff1690602001909291905050506101a5565b604051808215151515815260200191505060405180910390f35b3480156100cd57600080fd5b506100f660048036038101908080359060200190929190803590602001909291905050506102f4565b604051808273ffffffffffffffffffffffffffffffffffffffff1673ffffffffffffffffffffffffffffffffffffffff16815260200191505060405180910390f35b34801561014457600080fd5b5061016360048036038101908080359060200190929190505050610341565b604051808273ffffffffffffffffffffffffffffffffffffffff1673ffffffffffffffffffffffffffffffffffffffff16815260200191505060405180910390f35b60008060008481526020019081526020016000208290806001815401808255809150509060018203906000526020600020016000909192909190916101000a81548173ffffffffffffffffffffffffffffffffffffffff021916908373ffffffffffffffffffffffffffffffffffffffff1602179055505060018290806001815401808255809150509060018203906000526020600020016000909192909190916101000a81548173ffffffffffffffffffffffffffffffffffffffff021916908373ffffffffffffffffffffffffffffffffffffffff160217905550507f1e6e02c9589612d091b6d88e3f0a4af8853df1573895d33dc5bd10f27bfbc5978383604051808381526020018273ffffffffffffffffffffffffffffffffffffffff1673ffffffffffffffffffffffffffffffffffffffff1681526020019250505060405180910390a192915050565b60006020528160005260406000208181548110151561030f57fe5b906000526020600020016000915091509054906101000a900473ffffffffffffffffffffffffffffffffffffffff1681565b60018181548110151561035057fe5b906000526020600020016000915054906101000a900473ffffffffffffffffffffffffffffffffffffffff16815600a165627a7a72305820a3379d8a080a633db619b6a24cb4c318b094707dceda2a8ca6495ce51f5575870029",
  "source": "pragma solidity ^0.4.24;\n\n/**\n * Author: Carlos Gonzalez -- Github: carlosgj94\n */\n/** @title Loan Registry. */\n\ncontract LoanRegistry {\n    mapping(uint => address[]) public loansByBloomId;\n    address[] public loans;\n\n    event LoanCreated(uint bloomId, address loan);\n\n    function addLoan(uint _bloomId, address _loanAddress) public returns(bool) {\n        loansByBloomId[_bloomId].push(_loanAddress);\n        loans.push(_loanAddress);\n        emit LoanCreated(_bloomId, _loanAddress);\n    }\n}\n",
  "sourcePath": "/Users/carlosgonzalezjuarez/Documents/Development/Vue/BloomLending/contracts/LoanRegistry.sol",
  "compiler": {
    "name": "solc",
    "version": "0.4.25+commit.59dbf8f1.Emscripten.clang"
  },
  "schemaVersion": "3.0.0-beta.1",
  "updatedAt": "2018-10-27T14:44:58.521Z"
}