{
  "contractName": "LoanRegistry",
  "abi": [
    {
      "constant": true,
      "inputs": [
        {
          "name": "",
          "type": "uint256"
        },
        {
          "name": "",
          "type": "uint256"
        }
      ],
      "name": "loansByBloomId",
      "outputs": [
        {
          "name": "",
          "type": "address"
        }
      ],
      "payable": false,
      "stateMutability": "view",
      "type": "function",
      "signature": "0x7f53ee29"
    },
    {
      "constant": true,
      "inputs": [
        {
          "name": "",
          "type": "uint256"
        }
      ],
      "name": "loans",
      "outputs": [
        {
          "name": "",
          "type": "address"
        }
      ],
      "payable": false,
      "stateMutability": "view",
      "type": "function",
      "signature": "0xe1ec3c68"
    },
    {
      "anonymous": false,
      "inputs": [
        {
          "indexed": false,
          "name": "bloomId",
          "type": "uint256"
        },
        {
          "indexed": false,
          "name": "loan",
          "type": "address"
        }
      ],
      "name": "LoanCreated",
      "type": "event",
      "signature": "0x1e6e02c9589612d091b6d88e3f0a4af8853df1573895d33dc5bd10f27bfbc597"
    },
    {
      "constant": false,
      "inputs": [
        {
          "name": "_bloomId",
          "type": "uint256"
        },
        {
          "name": "_loanAddress",
          "type": "address"
        }
      ],
      "name": "addLoan",
      "outputs": [
        {
          "name": "",
          "type": "bool"
        }
      ],
      "payable": false,
      "stateMutability": "nonpayable",
      "type": "function",
      "signature": "0x6e190ea3"
    },
    {
      "constant": true,
      "inputs": [],
      "name": "getLoansLength",
      "outputs": [
        {
          "name": "",
          "type": "uint256"
        }
      ],
      "payable": false,
      "stateMutability": "view",
      "type": "function",
      "signature": "0xf89dcbfd"
    },
    {
      "constant": true,
      "inputs": [
        {
          "name": "_index",
          "type": "uint256"
        }
      ],
      "name": "getLoans",
      "outputs": [
        {
          "name": "",
          "type": "address[10]"
        }
      ],
      "payable": false,
      "stateMutability": "view",
      "type": "function",
      "signature": "0x0aed3ca1"
    }
  ],
  "bytecode": "0x608060405234801561001057600080fd5b5061054d806100206000396000f30060806040526004361061006d576000357c0100000000000000000000000000000000000000000000000000000000900463ffffffff1680630aed3ca1146100725780636e190ea3146100db5780637f53ee2914610140578063e1ec3c68146101b7578063f89dcbfd14610224575b600080fd5b34801561007e57600080fd5b5061009d6004803603810190808035906020019092919050505061024f565b6040518082600a60200280838360005b838110156100c85780820151818401526020810190506100ad565b5050505090500191505060405180910390f35b3480156100e757600080fd5b5061012660048036038101908080359060200190929190803573ffffffffffffffffffffffffffffffffffffffff169060200190929190505050610312565b604051808215151515815260200191505060405180910390f35b34801561014c57600080fd5b506101756004803603810190808035906020019092919080359060200190929190505050610465565b604051808273ffffffffffffffffffffffffffffffffffffffff1673ffffffffffffffffffffffffffffffffffffffff16815260200191505060405180910390f35b3480156101c357600080fd5b506101e2600480360381019080803590602001909291905050506104b2565b604051808273ffffffffffffffffffffffffffffffffffffffff1673ffffffffffffffffffffffffffffffffffffffff16815260200191505060405180910390f35b34801561023057600080fd5b506102396104f0565b6040518082815260200191505060405180910390f35b6102576104fd565b61025f6104fd565b60008090505b60018054905084600a028201101561030857600184600a02820181548110151561028b57fe5b9060005260206000200160009054906101000a900473ffffffffffffffffffffffffffffffffffffffff168282600a811015156102c457fe5b602002019073ffffffffffffffffffffffffffffffffffffffff16908173ffffffffffffffffffffffffffffffffffffffff16815250508080600101915050610265565b8192505050919050565b60008060008481526020019081526020016000208290806001815401808255809150509060018203906000526020600020016000909192909190916101000a81548173ffffffffffffffffffffffffffffffffffffffff021916908373ffffffffffffffffffffffffffffffffffffffff1602179055505060018290806001815401808255809150509060018203906000526020600020016000909192909190916101000a81548173ffffffffffffffffffffffffffffffffffffffff021916908373ffffffffffffffffffffffffffffffffffffffff160217905550507f1e6e02c9589612d091b6d88e3f0a4af8853df1573895d33dc5bd10f27bfbc5978383604051808381526020018273ffffffffffffffffffffffffffffffffffffffff1673ffffffffffffffffffffffffffffffffffffffff1681526020019250505060405180910390a16001905092915050565b60006020528160005260406000208181548110151561048057fe5b906000526020600020016000915091509054906101000a900473ffffffffffffffffffffffffffffffffffffffff1681565b6001818154811015156104c157fe5b906000526020600020016000915054906101000a900473ffffffffffffffffffffffffffffffffffffffff1681565b6000600180549050905090565b61014060405190810160405280600a906020820280388339808201915050905050905600a165627a7a72305820c51aee784ee3316db2e4ff83979acc88cf89c15559cd963c3cd5c32a88005a880029",
  "source": "pragma solidity ^0.4.24;\n\n/**\n * Author: Carlos Gonzalez -- Github: carlosgj94\n */\n/** @title Loan Registry. */\n\ncontract LoanRegistry {\n    mapping(uint => address[]) public loansByBloomId;\n    address[] public loans;\n\n    event LoanCreated(uint bloomId, address loan);\n\n    function addLoan(uint _bloomId, address _loanAddress) public returns(bool) {\n        loansByBloomId[_bloomId].push(_loanAddress);\n        loans.push(_loanAddress);\n        emit LoanCreated(_bloomId, _loanAddress);\n        return true;\n    }\n\n    function getLoansLength() public view returns(uint) {\n        return loans.length;\n    }\n\n    function getLoans(uint _index) public view returns(address[10]) {\n        address[10] memory _loans;\n        uint _counter = 0;\n        while (_counter + (10 * _index) < loans.length) {\n            _loans[_counter] = loans[_counter + (10 * _index)];\n            _counter++;\n        }\n\n        return (_loans);\n    }\n}\n",
  "sourcePath": "/Users/carlosgonzalezjuarez/Documents/Development/Vue/BloomLending/contracts/LoanRegistry.sol",
  "compiler": {
    "name": "solc",
    "version": "0.4.25+commit.59dbf8f1.Emscripten.clang"
  },
  "schemaVersion": "3.0.0-beta.1",
  "updatedAt": "2018-10-27T20:55:59.649Z"
}